:020000041000EA
:1000000000B5324B212058609868022188439860DF
:10001000D860186158612E4B002199600221596106
:100020000121F02299502B49196001219960352056
:1000300000F044F80222904214D00621196600F024
:1000400034F8196E01211966002018661A6600F04E
:100050002CF8196E196E196E052000F02FF8012189
:100060000842F9D1002199601B49196000215960AB
:100070001A491B48016001219960EB211966A021F2
:10008000196600F012F800219960164914480160C1
:100090000121996001BC002800D000471248134993
:1000A000086003C880F30888084703B5996A0420EC
:1000B0000142FBD001200142F8D103BD02B5186610
:1000C0001866FFF7F2FF186E186E02BD00000240BE
:1000D000000000180000070000035F00212200005C
:1000E000F4000018222000A00001001008ED00E03C
:1000F00000000000000000000000000074B24E7A12
:1001000000200420F7010010C3010010C5010010F9
:10011000C1010010C1010010C1010010C101001097
:10012000C1010010C1010010C1010010C701001081
:10013000C1010010C1010010C9010010CB01001065
:10014000CD010010CD010010CD010010CD01001037
:10015000CD010010CD010010CD010010CD01001027
:10016000CD010010CD010010CD010010CD01001017
:10017000CD010010CD010010CD010010CD01001007
:10018000CD010010CD010010CD010010CD010010F7
:10019000CD010010CD010010CD010010CD010010E7
:1001A000CD010010CD010010CD010010CD010010D7
:1001B000CD010010CD010010CD010010CD010010C7
:1001C00000BE00BE00BE00BE00BE00BEEFF3058054
:1001D000103800BEF2EB887118CC041034CC041037
:1001E0003402001090A31AE700201F49086006C8D7
:1001F00081F3088810471D48006800282FD10DA4FE
:100200000ECC002902D000F012F8F9E71849194A7B
:10021000002000E001C19142FCD1174988471749ED
:1002200088471749884700BEFDE701C901C29A42C5
:10023000FBD3704734CC0410C0000020301F0020D6
:10024000A4EA04100000042000000420A4EA041022
:10025000001004200010042000000000704709482E
:1002600004F0D0FB0047000008ED00E0000000D0E3
:10027000301F00201C3D002081310010550300106C
:10028000B53200105756000006005250ABB3605311
:10029000E826041006005250861C0302182704109A
:1002A000060052505422A29D3027041005005250DF
:1002B000DE65F468A4EA0410F8B5C0460448054BAE
:1002C00010B5834203D0044B002B00D0984710BDDB
:1002D000301F0020301F00200000000006480749A2
:1002E000091A8B10C90FC91810B5491003D0044B57
:1002F000002B00D0984710BD301F0020301F002079
:100300000000000010B5074C2378002B09D1FFF73F
:10031000D5FF054B002B02D0044800E000BF0123AD
:10032000237010BDD824002000000000101F04100E
:10033000054B10B5002B03D00449054800E000BF71
:10034000FFF7CCFF10BDC04600000000DC240020F9
:10035000101F041000B583B005F0F4FA01A801F0F5
:10036000FBF801A800F080F9FA20400001F0DCFE63
:100370000021064802F0ACFE02F0A0FE00F06EF98B
:100380000028F9D000F026F9F6E7C0467017000003
:1003900010B5024805F0E4FC10BDC046483B002003
:1003A0000800704770B5012904D0022916D0002931
:1003B0000AD070BD80212B4B49005A5C00689C5CC0
:1003C000013204615A54F4E7274B00680131FF31D0
:1003D0005A5C0069985401325A54EAE70122224DCE
:1003E000224B2C001A706A78214B2E1D1A7020782F
:1003F000013405F0BFF8B442F9D10A2005F0BAF88B
:100400001C4C0E2220001C4924F0CAFF23680C3B20
:100410001B68E318DE6F002E22D0337F002B12D032
:100420002723F15C2000802424F04AFF640024F09C
:10043000B3FE22000021280004F0ECFF0023094A4B
:100440002B551355B5E730000BF01EFF33680A211A
:100450009A690A4B9A42E5D0300090470100E1E7E3
:1004600019F086FE502700204C260020163D002063
:10047000193D002078380020101F0410A10300103F
:1004800030B540388BB0242807D84A4B80001B5821
:100490009F46494B186801F075F80BB030BD464BCC
:1004A000186800F029FCF8E7434B01A8196800F030
:1004B000C3FC099A002AF0DD01A9404804F0B0FF0E
:1004C000EBE73F4C0D2220003E4924F069FF2368F2
:1004D0000C3B1B68E318DD6F002D69D02B7F002BD0
:1004E0004CD02723E95C200024F0EAFE01AC24F084
:1004F00053FE0521200000F053FA304B23CC23C3D8
:10050000CBE72F4C122220002F4924F049FF23680B
:100510000C3B1B68E318DD6F002D49D02B7F002BAF
:1005200039D02723E95C200024F0CAFE01AC24F076
:1005300033FE0321200000F033FA204B23CC23C3E9
:10054000ABE71D4B01AC186800F064FF0100200010
:1005500000F026FA194B23CC23C39EE700210A2082
:1005600002F0B6FDFEE7144C206800F0C5FB17480A
:1005700001F0DAFD206801F005F88EE728000BF0A5
:1005800083FE2B680A219A69114B9A42ABD028004E
:1005900090470100A7E728000BF076FE2B680A21A0
:1005A0009A690B4B9A42BED0280090470100BAE7E7
:1005B00019F0DEFD441F0410E83B00205027002006
:1005C00078380020201F0410301F0410EE020000B5
:1005D000A103001070B51B4C207800280BD0FFF74A
:1005E0004FFF80210022184B490022705A540022EC
:1005F000164B1A7070BD164C11222000154924F0BC
:10060000CFFE23680C3B1B68E318DD6F002D17D06D
:100610002B7F002B07D02723E95C200024F050FE1D
:1006200024F0BAFDE3E728000BF02EFE2B680A2128
:100630009A69094B9A42F0D0280090470100ECE7F4
:1006400019F096FD193D002050270020163D00208E
:1006500078380020D81F0410A1030010014B18782F
:100660007047C046163D0020174B10B5186000F0CB
:1006700089FF042002F0ACFC0321042002F07EFC80
:1006800000220121042002F091FC052002F0A0FCD0
:100690000321052002F072FC00220121052002F056
:1006A00085FC0A4C0A49200001F0EEF80C212000DC
:1006B000084A00F087FF80220021074B520099541E
:1006C000064B995410BDC046E83B0020841300201F
:1006D000A0860100A50300104C2600205027002012
:1006E00010B51A4805F03CFB194B80201A0008325F
:1006F0001A6000225A601A72164B40001900083125
:1007000019605A601A7204F067FE0100021E01D0DF
:100710000130FF30104B1861586180209960DA6019
:100720002821002240005A541A7604F055FE010098
:10073000021E01D00130FF30084B9960DA60282199
:100740000022186158611A765A5410BD4C3B0020A3
:10075000642500207C250020A82300207823002089
:1007600008B4F0B582B000AFD2B06E462023A42109
:100770000400FB183000124A49003B6004F0E4F822
:1007800005002000083020607D600F2D0FDC2A005E
:10079000310004F045FE00212000BD467B68226840
:1007A0006360D15402B0F0BC08BC01B0184700220D
:1007B0002000391D25F08AFA7B682060A360E6E7F7
:1007C000EC1F041082B0F0B5DE4657464E46454653
:1007D00000249146E0B5A1B02A9204628046924678
:1007E00000213C2211A82B93109404F013FE06ABB9
:1007F000049302AB1C744B460594002B00DCABE069
:1008000000255D4B2CAE9B465C4B02935C4B0393E7
:100810003268736800920193A4225B4602995200E9
:100820000AA8FFF79DFF0122302152420AA825F0B5
:100830007FFD0B9B0130984200D996E000270122F2
:100840000A9B0B902E211F5452420AA825F070FDDE
:100850000B9B0130984200D987E00A9B0B901F54F4
:100860000A9A002D63D010AF3819039904F056F896
:10087000434624181C624B46013BAB4263D0002325
:100880000A9A0B9313700A980CAB984249D00C99B2
:100890000135013104F0DAFD08365545B8D1002C98
:1008A0005BDD454622003900404604F0B9FD2100D9
:1008B000344805F03BF8344804F0A8FE334E444475
:1008C0002022297802AB9B18197033680C3B1B68F7
:1008D000F3189B68002B1DD030001F3A0AA9013580
:1008E00024F05EFDAC42EBD10A2004F043FE0498F4
:1008F00006AB984203D00699013104F0A7FD4046AB
:1009000021B0F0BCBB46B246A946A046F0BC08BC2C
:1009100002B018473000013524F0D2FCA542CFD1F7
:10092000E2E701350836AA4500D071E7B7E710AF16
:100930003819174903F0F2FF434624181C624B464E
:10094000013BAB429BD138190A9A124903F0E6FFEA
:10095000434601341C6292E700242100094804F058
:10096000E5FF094804F052FEBEE70B4C02000B49BC
:10097000200019F055FCC046EC1F04104949001036
:100980004020041048200410602004107838002013
:100990003C2004104420041004200410F01F041014
:1009A00070B588B06C4600230E0005001C220021A3
:1009B00001A8009304F02EFD08492000320003F046
:1009C000ADFF03232A002B62230013CB13C213CBEA
:1009D00013C203CB03C2280008B070BD74200410FA
:1009E00010B5024805F0BCF910BDC046503B0020D0
:1009F00010B5024805F0B4F910BDC046543B0020C4
:100A000010B5024805F0ACF910BDC046583B0020B7
:100A100010B5024805F0A4F910BDC0465C3B0020AB
:100A200010B50400034804F0F1FD62232000237395
:100A300010BDC0467C200410F0B5134B87B005AC48
:100A40002380057B01F086FCFA2206000F000023BC
:100A50009200802192197B410C4809068B4202D3F7
:100A600001220B4B524202920393002322002900E1
:100A70000093023300F0BAFFFA20400001F054FB6B
:100A8000012007B0F0BDC0463F86FFFF7C13002069
:100A9000FFFFFF7FF0B5C64600B586B04BBA05AD87
:100AA0002B80037B0C00984601F054FCFA220600D0
:100AB0000F0000239200802192197B410D48090606
:100AC0008B4202D301220C4B524202920393002329
:100AD0002A0000934146023300F088FF074B9C42F6
:100AE00003D006B080BCB846F0BDFA20400001F04B
:100AF0001BFBF6E77C130020FFFFFF7F863F000013
:100B0000F0B5CE4647460023050080B589B00522E2
:100B10000C0006A80021059304F07CFC294B04AFCF
:100B20003B802B7B984601F015FCFA2200239200B3
:100B3000801859418023244E1B06994202D301207C
:100B40002249404200239946029003913A004146CF
:100B500000933000023300F049FF4B46297B05AA81
:100B600000933000093300F065FF6B469B8A5BBA47
:100B7000238017236B4458781A780002104340BA38
:100B800080B204F0CDFB124904F07FFBDE21890521
:100B900004F07BFB0F4904F05EFB6B466060588BF2
:100BA00040BA80B204F0BCFB0B4904F06EFBDE21BE
:100BB000890504F06AFBA06009B0C0BCB946B04624
:100BC000F0BDC046EC0500007C130020FFFFFF7F56
:100BD00000002F43000034420000C842F0B54746F1
:100BE000CE4680B5304B87B01B8805AC23800023F0
:100BF000A3702E4B04AF3B80037B0500984601F0A9
:100C0000A9FBFA2200239200801859418023284E24
:100C10001B06994202D301202649404200239946EF
:100C2000029003913A00414600933000023300F0F5
:100C3000DDFE4B46297B220000933000033300F099
:100C4000F9FE238801205BBA5B0504D007B0C0BC65
:100C5000B946B046F0BD184C10222000174924F0C8
:100C60009FFB23680C3B1B68E318DD6F002D18D039
:100C70002B7F002B08D02723E95C200024F020FBE9
:100C800024F08AFA0020E1E728000BF0FDFA2B6837
:100C90000A219A690A4B9A42EFD028009047010036
:100CA000EBE719F065FAC04698200410E4B8FFFF9E
:100CB0007C130020FFFFFF7F783800208420041081
:100CC000A103001010B5054805F04AF8044804F0E7
:100CD0009DFC6222034B1A7310BDC046603B00208E
:100CE0007C2004105425002010B5024805F038F887
:100CF00010BDC046643B0020D02380221B06D202D8
:100D00009A61002303707047F0B5C6460F26002590
:100D100000B53C4888B004F079FC6E4444213A4860
:100D2000357004F003FE394F0123320044213800AE
:100D3000009500F07FFE364B010004001800984635
:100D400004F0F4FD0120002C03DD08B080BCB8469F
:100D5000F0BD77212F4804F0E9FD0123320077210F
:100D60003800009500F066FE01000400404604F0E3
:100D7000DDFD0220002CE8DC4021274804F0D6FDF0
:100D80000123320040213800009500F053FE01009D
:100D90000400404604F0CAFD0320002CD5DC62218B
:100DA0001E4804F0C3FD1E4B04AA138062210223D7
:100DB0003800009500F0B2FD04001A48210004F04C
:100DC000B5FD022C07D0184804F020FC174804F0A9
:100DD0001DFC0020B9E70A2001F0A6F962210923D1
:100DE0003800009505AA00F025FE040010482100F7
:100DF00004F09CFD092CE9D10E4804F007FC042006
:100E0000A3E7C0469C200410C02004107C130020DF
:100E1000DC200410E4200410002104101C21041024
:100E20003682FFFF38210410682104107421041059
:100E30004821041058210410F0B54546DE465746B7
:100E40004E4680468020E0B54000D1B004F0C4FAA0
:100E5000002800D10BE1431CFF3300242E932F9375
:100E600028232C902D902AADBC489A46EC542C7621
:100E700004F0CCFBBA4B1B789946032B00D1F8E069
:100E800033D8012B00D140E1022B00D033E1772190
:100E9000B44804F04BFD00260323B34F36AC1A963A
:100EA0001B9718961997369338A9189A199B684674
:100EB000A260E3601A9A1B9B226163616022A661B3
:100EC000E76104F0ADFA4046369A6368FFF77AFCB2
:100ED000A868002801D004F091FA404651B0F0BC57
:100EE000BB46B246A946A046F0BD042B00D002E1A5
:100EF00062219E4804F01AFD9D4B1B78002B00D107
:100F000010E19C4C2000FFF769FE002800D123E18E
:100F1000200022A9FFF7F4FD782204AB9B181B8860
:100F200036AC1800994604F097F818901991239858
:100F300004F018FA1A901B91249804F013FA032372
:100F400006000F0036932100189A199B8A48A26068
:100F5000E3601A9A1B9B226163616822A661E761C4
:100F600004F05EFA5346E95C7F230B4200D123E193
:100F70008B0600D529E1814B0A2218008049994649
:100F800024F00EFA782204AB9B181988484624F006
:100F900053FB824603680C3B1B685344DB6F9B4644
:100FA000002B00D12BE21B7F002B00D106E2272370
:100FB0005A46D15C504624F083F924F0EDF80B2218
:100FC0007049484624F0ECF9239804F0CBF902006C
:100FD0000B00484624F0E8FB824603680C3B1B6884
:100FE0005344DB6F9B46002B00D108E21B7F002B94
:100FF00000D1D4E127235A46D15C504624F060F951
:1010000024F0CAF80F2248465F4924F0C9F9249811
:1010100004F0A8F902000B00484624F0C5FB814605
:1010200003680C3B1B684B44DB6F9A46002B00D1D6
:10103000E5E11B7F002B00D1A2E127235246D15CC2
:10104000484624F03DF924F0A7F8504A2CAB1C93F5
:101050001D921E934E4A20934E4B1F9221934E4851
:1010600020AB1EAA1CA904F061FC03231BE700238C
:10107000F3E6812320AF40213B70484804F056FC42
:101080000123474E3A0040213000009300F046FC17
:1010900000284BDD22AF3A001D2300944021300090
:1010A00000F0C8FCB88836AC40BA80B203F0D4FF78
:1010B00018901991F88840BA80B203F0CDFF1A90C9
:1010C0001B91388940BA80B203F0C6FF4B46060038
:1010D0000F0036932100189A199B2748A260E360FD
:1010E0001A9A1B9B226163616822A661E76104F082
:1010F00097F90323D7E62B4804F088FA00231A4C0B
:1011000018931994012336ACCDE64421264804F007
:101110000DFC0023144C1A931B941893199402236A
:1011200036ACC0E6214804F071FAB4E6204804F079
:101130006DFA114E36AC31006822200004F070F9CF
:10114000B168F26833681891199231697269F76968
:10115000B6691A911B92A6E61648E8E7902104109A
:10116000153D0020B821041000388FC0142204104F
:10117000143D00203C260020301F0020783800203D
:101180005C220410682204107422041050220410FF
:10119000542204105822041084220410D421041074
:1011A0007C130020D42204109C210410302204104F
:1011B000F0210410A8220410994320231943534618
:1011C0000022E9540023329233932B6A002B1CD067
:1011D000302264209446DA688A461178884205D124
:1011E00051788C4502D19278002A6CD00A215A5E3F
:1011F000002A09D012019B18DA6811788842EFD0D2
:101200000A215A5E002AF5D15146EA682B6910324C
:10121000934200D2E1E06A6A103B2B61002A00D1C0
:10122000E1E0991A0911518100226B625A811A7208
:10123000744ADA6008221A724A461A6000225A601A
:101240002823E95C7F320A4200D0C8E09143202283
:101250001143E95400220023329233932B6A002B6E
:101260001AD0312264209446DA681178884205D178
:1012700051788C4502D19278002A2AD00A215A5EF0
:10128000002A09D012019B18DA6811788842EFD041
:101290000A215A5E002AF5D1EA682B69103293427E
:1012A00000D2A9E06A6A103B2B61002A00D19CE0C1
:1012B000991A0911518100226B625A811A72524A9D
:1012C000DA600C220AE07F211A7A8A4377390A43CE
:1012D000B1E77F211A7A8A4373390A431A721A993D
:1012E0001B9A19605A6028227F21AB5C194235D0C5
:1012F0009B0600D43FE632222B6A64209446002BE2
:1013000017D0DA681178884205D151788C4502D11E
:101310009278002A2BD00A215A5E002A09D01201A5
:101320009B18DA6811788842EFD00A215A5E002AA9
:10133000F5D1EA682B69103293425AD36A6A103B9E
:101340002B61002A53D0991A0911518100226B6236
:101350005A811A722D4ADA600C220DE08B4320214B
:101360000B43AB540022002332923393C3E77F2117
:101370001A7A8A4373390A431E605F601A72FAE56B
:1013800050460AF081FF53461B68214A9B690A2197
:10139000934200D154E650469847010050E6584623
:1013A0000AF072FF5B461B68194A9B690A21934247
:1013B00000D122E65846984701001EE658460AF03A
:1013C00063FF5B461B68124A9B690A21934200D166
:1013D000F0E5584698470100ECE501232B76890695
:1013E00000D53BE7C7E52B621EE72B6263E72B6264
:1013F000ACE701232B76BEE501232B767BE718F0C3
:10140000B7FEC04650220410542204105822041083
:10141000A10300100078704770B51A2001F0D8FDC4
:1014200003211A2001F0AAFD1B2001F0D1FD0321A8
:101430001B2001F0A3FD002201211A2001F0B6FDBE
:10144000002201211B2001F0B1FD3149314800F09B
:101450001BFAFA200024C00000F066FE2E4D2F4E2D
:10146000FFF752FC011E28700BD10134210030001F
:1014700004F05CFAFA20400000F056FE032CEFD195
:101480002978274804F052FA264C2B7822789A4281
:1014900004D0254804F0BAF82B782370032B2BD006
:1014A00012D8012B30D0022B2AD1204804F0AEF8FC
:1014B000002003221E4B1F491A609860D9601861F2
:1014C00059619861D96170BD042B19D11A4804F093
:1014D0009DF81A4C2000FFF7AFFA20001849FFF7DB
:1014E000D9FA0122174B18481A7004F08FF8FA2025
:1014F000800000F019FEDBE7144804F087F8D7E716
:10150000134804F083F8D3E7124804F07FF8CFE7DC
:10151000A08601007C130020153D0020F822041055
:1015200024230410173D0020402304108C230410B2
:10153000301F002000388FC0BC2304103C26002040
:10154000B1210000143D0020D4230410A423041072
:10155000F82304107423041010B50400122001F0C5
:1015600037FDD023802200211B06D2025A62FA20C6
:1015700021705A6100F0D8FD2000FFF74DFF2000D8
:1015800010BDC046D023802210B50400FA201B06EF
:10159000D2025A61C00000F0C7FD2000FFF73CFFF7
:1015A0000123237010BDC04610B5044804F0D8FBD9
:1015B00062210348FFF734FA10BDC046683B0020A3
:1015C0003C26002070B5114E0500841B63425C412F
:1015D00060000F4B00198000C5501B185A6028008E
:1015E0000A00012100F07AF92B680A4A17341A63BD
:1015F000B54208D00849200000F0E0FF012120009A
:1016000000F0C2FF70BD0549F5E7C0467C1300201D
:10161000C83B002064060000C100002061010020DA
:10162000F0B545464E46DE465746E0B5060087B063
:101630001C00049310AB187800230292129A119D9B
:10164000904632680590D36601335160D366231EFD
:1016500000DCB0E0013B0193012343405B020393B4
:1016600000200023317999468902834610270C0017
:101670009A464B4601984946181A43425841039BE3
:1016800040421840029B5B5C1C43204310610024D5
:10169000002D40D04346B04612931E0004E043465E
:1016A0001A68536B1F4214D13000A8470443E4B2B8
:1016B0000028F4D01296129B46468246984661D185
:1016C00001239C46049BE1444B4519D00024326819
:1016D000CFE780211296129B4646984653589B4668
:1016E000002B2BD1002C2BD1019B99455BD00023E3
:1016F0009B469A4601239C46049BE1444B45E5D119
:10170000CB465846059B337107B0F0BCBB46B2468A
:10171000A946A046F0BD5346002BD1D1536B1F42C2
:10172000FCD0802153589B46002BDDD00124516D05
:1017300080208000536B0342FCD01EE00124526DD8
:1017400080239B009A464346B04612931E0005E054
:10175000434651461A68536B0B420AD13000A847E2
:101760000443E4B20028F3D0464601235B429B4683
:10177000C7E71296129B464698460023201E9A46BB
:10178000126E9DD04A465346D9469346002BECD163
:101790004B46002B03D0DA0701D41B07B1D4022338
:1017A0005B429B46ADE7059B002BA0D10024002D9A
:1017B00004D19B46BCE700239B46A2E700239B463F
:1017C000BEE7C046F8B5DE4657464E464546834618
:1017D000E0B505200C0001F0CBFB060060082100FD
:1017E000801903F069F943009846804407000521F9
:1017F000404603F061F93B1A9A46204B814670003F
:1018000080199C4234D81E4903F056F9451C5B46AA
:101810001C6800230422E36623680120534002323F
:101820001A4080235B0123431A605346E3614B4611
:10183000236243464F2B03D95021404603F03CF925
:10184000A023E050E36F22005D4080237C322D0412
:101850005B0113432D0C1D60012339003000E3664A
:1018600003F02AF9F0BCBB46B246A946A046F8BD33
:10187000044903F021F9451CC9E7C0463F420F0067
:101880008096980040787D01104A70B5821A5342C4
:101890005A41072352429A430D4B10321A600D4BA6
:1018A0000D4C1A601500A3689D432B1EFAD16624C7
:1018B0000268FF340571D5661460633C8833FF3CD1
:1018C000D5639563D450FFF77DFF70BD841300206E
:1018D00000E0004000F0004000C00040036800202D
:1018E000D86600290DD080211868890041400A4837
:1018F000014080204001184301609A600122DA66AD
:10190000704741211A684A4003490A408021490131
:1019100019430A60F2E7C04641020000F0B557469D
:101920004E46DE4645468446E0B583B01F000CAB0C
:1019300018786346914600221B680190DA660132EE
:101940005960DA66002F4FDD7A1E904662461279A2
:1019500001269202802493463A0046407602802572
:101960003700002046461021A2469046AD00341AAA
:10197000624254414A4664423C4000945C46125CD8
:101980002243009C22431A615A6B1142FCD05246FA
:101990009C58002C10D1864221D000220130934661
:1019A0008045E4D16346019A1A7103B0F0BCBB468E
:1019B000B246A946A046F0BD5A6D012293465A6B25
:1019C0002A42FCD01A6E5A46002AE6D0002C03D0D8
:1019D000E30701D42407E5D402204042E2E7019A5C
:1019E000002ADAD19346EAE70020DBE7F0B5CE46DD
:1019F000474680B589B01F0010AB1B78040099469C
:101A000004AB98461600129A139B40460D0000F056
:101A100031FC434602934B460190009332003B0059
:101A200029002000FFF7FCFD09B0C0BCB946B04654
:101A3000F0BDC046F0B5DE464E4645465746E0B5D9
:101A4000060009A80078346880460020E0666160DE
:101A500001219346E166002B32DD8022591E52009F
:101A60008C4692468025616F1029FCD00021002809
:101A700001D13179890260451CD052461143216160
:101A800002E0A16F00290DD16159616D0029F8D0E4
:101A90000220404243463371F0BCBB46B246A946E1
:101AA000A046F0BD5A462169115401308342F1D05D
:101AB0003468D8E74246012757407A021143DCE7F1
:101AC0000020E7E7024B18688007C00F7047C04648
:101AD00000C0064070B5EFF3108C72B60D4D2B6848
:101AE000002BFCD0BFF35F8F0724CB08C618C05C67
:101AF00001230C40A3401C000440034207D11843BB
:101B00003070BFF35F8F2C608CF3108870BD1000B5
:101B100001F0F0FB2C0100D00021044B044ABFF37C
:101B20005F8F02C39342FAD17047C046000100D0D4
:101B3000800100D0044A1078431CDBB2172B00D977
:101B4000102313707047C0468C13002083680B4825
:101B500010B58446614462441201090159189B186A
:101B60005C684A680120944201D802D00020C0B2CB
:101B700010BD1A680B689A42F9D8F7E7FFFFFF0F0C
:101B80000A4B1968EFF3108072B60A68002AFCD07D
:101B9000BFF35F8F1B68BFF35F8F00221A6080F373
:101BA000108840BF002000217047C046003D002043
:101BB000F8B5574645464E46DE46E0B598460CAB6E
:101BC0001C780DAB1B78070091469A460568002CDF
:101BD0005ED1AC7B002C3BD0660029683619033EF1
:101BE00089194B78AB73002B00D1EB7300238B70FA
:101BF0004B700B702D4BE218BB6812019B184A46C4
:101C00001A6042465A600A9A9A600B9ADA60002378
:101C10008B704B700B706B7B9B46002B2BD0220084
:101C20005946A8686B6898472A68002816D05B4612
:101C300058465B005B449619033BB070D118D35CE7
:101C4000002B00D073705B460C706B735C4513D037
:101C5000F0BCBB46B246A946A046F8BD5B465B0059
:101C60005B44033BD3189C709119925D002A00D00D
:101C70005A705B460B706C734A464346387D00F0E1
:101C8000FDFB051E0AD10E9B002BE1D01D70DFE786
:101C9000660029683619033E8919ABE75346002BC5
:101CA000F1D12100386800F0C3FFECE7FFFFFF0F20
:101CB000F0B5DE4657464E4645460023E0B58BB0AC
:101CC0000893684B8200D45800239B46099000F08B
:101CD00041FB02000B006068EFF3108A72B65646B3
:101CE00001680029FCD0B246BFF35F8F21684F7BAB
:101CF0008C46002F2ED0A5685B49A94679180901AA
:101D0000894449460868496805000E00AD1A9E419D
:101D1000002E5FDD02000B00099800F0AFFB0023EE
:101D20000022994600230692079300239846636891
:101D3000BFF35F8F5A461A608AF310884346002B20
:101D400012D10028C3D10BB0F0BCBB46B246A946A5
:101D5000A046F0BD00230022994600230692079377
:101D6000002300209846E2E7089B494618023843C2
:101D7000C047626805000E00EFF3108A72B6136860
:101D8000002BFCD0BFF35F8F002E41DB2B003343D1
:101D900002D02369002B56D12368D97B002905D0B6
:101DA0001A68480041185218033A57709A7B002A63
:101DB00000D19F73DF73E268013FD35D0133D355D8
:101DC0005B4623616368BFF35F8F5A461A608AF3EC
:101DD00010887CE7002E02D1002D00D09AE7002168
:101DE000604600F0A3FE4B461A685B6806920793B4
:101DF0004B469B6898464B46DB689946E368DB197F
:101E0000013B1B7808931B020343236100208EE7EC
:101E10002369002BC0D0069A079B8021521BB34137
:101E200009068B4202D30122104B52420021049139
:101E300001310391494601914146200002970091EA
:101E4000FFF7B6FEBCE700F085FA2A00330012184F
:101E50004B41802109068B42E8D30122034B5242B9
:101E6000E4E7C046EC3B0020FFFFFF0FFFFFFF7FD2
:101E700010B5144C6368002B04D00A21124800F0FE
:101E800015FD10BD2300114A1021206800F064FDEB
:101E9000032000F053FA032000F058FB03200C4904
:101EA00000F0A6FAFFF746FE0A4B9C460323237573
:101EB000D0231B061B6860446375074B800060607D
:101EC000DC60DAE790130020003D00204D1B00107D
:101ED000B11C001040000034EC3B0020F0B5574628
:101EE0004E464546DE46E0B585B0019310AB1B7803
:101EF0000600039300239A46984600927268EFF317
:101F0000108B72B61368002BFCD0BFF35F8F35685F
:101F1000AC7B002C00D16FE067002B683F19033FBA
:101F2000DB195A78AA73002A00D1EA734B4AA11828
:101F3000B2680901521800980199106051600E9919
:101F400091600F99D16042469A705A701A706B7BFB
:101F50009946002B00D170E022004946A8686B68C2
:101F600098472A6800285BD04B4648465B004B44A4
:101F7000D719033BB870D118D35C002B00D07B700D
:101F80004B460C706B734C4558D0F3681B19013BE2
:101F900018787368BFF35F8F42461A608BF310881E
:101FA0005346002B08D10002204305B0F0BCBB46CD
:101FB000B246A946A046F0BD039B002B4BD00E9B1A
:101FC00000200F999847030004000D000B4342D0F6
:101FD00000291ADA009A019B121BAB41009201936F
:101FE00080221206934204D301231D4C5B420093CE
:101FF0000194039B9A4681E77368BFF35F8F1C606F
:102000008BF3108801204042CFE700F0A3F9802233
:1020100024184D411206009401959542E9D3E3E757
:102020004B465B004B44033BD3189C70D119D25DE7
:10203000002A00D05A704B460B706C73307D009AAA
:10204000019B00F01BFA824600289ED021003068D8
:1020500000F0EEFD99E70020A7E7C046FFFFFF0F65
:10206000FFFFFF7FF0B504000D0006267642F7174C
:10207000C64636196F4100B584B08F4214D811D0CE
:1020800000F068F932003B00121A8B41002B15DC7E
:10209000002B3ED02000290000F09AF904B080BC4B
:1020A000B846F0BD8642EBD90026002700F052F971
:1020B00032003B00121A8B41002BE9DD0023029312
:1020C0000193154B3200009314483B00FFF706FFC5
:1020D0000028DFDB00239846BC46114A114F7B6A7B
:1020E0009C4504D8B96AB142D4D29C45D2D111687A
:1020F000EFF3108072B60B68002BFCD0BFF35F8F3C
:102100001368BFF35F8F4146196080F3108820BFCA
:10211000E5E7002ABED0D1E7811B00109013002014
:10212000003D00200040054070B5060000F012F9A7
:10213000FA2204000D00002330000021920003F079
:102140006DF88023001969411B06994202D30120D2
:1021500002494042FFF786FF70BDC046FFFFFF7F88
:10216000F0B5EFF30583CE46474680B505000C0079
:1021700085B0002B0DD0324A0020536A9C4203D810
:10218000926A0130AA4232D305B0C0BCB946B0460B
:10219000F0BD2C4E029301932B4B020000933000B4
:1021A0000B00FFF79BFE031EE5DD20BF7168EFF318
:1021B000108772B60A68002AFCD0BFF35F8FDAB2CC
:1021C00094463068427B624516D0FF2201681A406F
:1021D00089465100884649469044414403398978EC
:1021E00000290BD13269934210D131610EE0E31A1C
:1021F0005A1E9341D8B2C7E7FF221A40F1681B0A62
:102200008A18013A1278DBB29A4214D07368BFF38D
:102210005F8F00221A6087F31088094B00205A6AEA
:102220009442B1D89B6A0130AB42ADD2A41A631E6E
:102230009C41E0B2A8E7614600F0FAFCE6E7C04640
:102240000040054090130020811B0010084A43689D
:10225000516A10B5046800208B4203D8926A01309D
:10226000A24200D310BD5B1A5A1E9341D8B2F9E7BF
:102270000040054002604360004870474D22001056
:10228000F0B5EFF30582D6464F4646461000C0B57E
:102290001038EFF3108872B6214C2368002BFCD065
:1022A000BFF35F8F0123190081401E4D1F0069633A
:1022B000AA461D4D29601D4D2E78AC463500C540FF
:1022C0002F402B4215D053465F6A194B8500EB58BF
:1022D0009F4218D36246174B8E43EB581670BFF3DC
:1022E0005F8F0022226088F31088002B06D0984769
:1022F00004E0BFF35F8F276088F31088E0BCBA4624
:10230000B146A846F0BD0C4B92009C46624413684F
:102310001360BFF35F8F0023236088F31088EDE71D
:10232000280100D0004005403C7005401B3D0020C6
:10233000043D00206C3B0020D03F054010B5034B0E
:1023400001001800024AFFF7C5FB10BD183D002030
:1023500020240410034B596A0A00986A596A8A4279
:10236000FAD170470040054070B504000D00174ACF
:10237000536A1900966A536A8B42FAD130001900E9
:1023800024184D41AB4216D813D0104B2A005B6A7B
:102390009D4203D90D494B6A9342FCD3934207D126
:1023A0000A4A02E0516A994202D1916AA142F9D3E4
:1023B00070BDA642E9D9054B5B6A1C005A1CEFD0E0
:1023C000012201246442E5175242E3E70040054040
:1023D000064A536A9942FCD807D1044B02E05A6A74
:1023E000914202D19A6A8242F9D370470040054077
:1023F00070B504000D00EFF3108672B61A4A136828
:10240000002BFCD0BFF35F8F002D1BD0200000F00D
:10241000CDF8164981420AD0200000F0CFF8012102
:10242000200000F0B1F80123A340114A1360114BC2
:10243000A400E550BFF35F8F00220B4B1A6086F3B8
:10244000108870BD0121A1400A4BA200D5500A4B53
:1024500020001A788A4305491A7000F0D9F8002143
:10246000200000F091F8E5E7280100D0812200105B
:10247000386005406C3B00201B3D0020F0B54F4606
:10248000D6464646C0B507002B4C616A0D00A66AC9
:10249000616AA942FAD18B4208D805D00120E0BC7C
:1024A000BA46B146A846F0BDB242F7D9EFF3108A5A
:1024B00072B6224801680029FCD0BFF35F8F012566
:1024C000BD401F491C4C8846097889462943C9B23A
:1024D0008C46414660460870391D890065630A5183
:1024E0001849B8004350216A0020294219D0616A76
:1024F0000800A66A616A8142FAD18B4219D801D1DB
:10250000B24216D8CC450BD00B4B1F221D625D6327
:1025100001233A4093400C4A136043464A461A70DE
:102520000120BFF35F8F0022044B1A608AF31088EA
:10253000B5E70020F5E7C04600400540280100D07F
:102540001B3D0020043D002080E200E0EFF3108CF2
:1025500072B60A490B68002BFCD0BFF35F8F0123D2
:102560008340074A0748136202789A430270BFF318
:102570005F8F00230B608CF310887047280100D018
:10258000004005401B3D002001238340002904D06A
:10259000034A1360034A13607047034A1360FBE762
:1025A00080E200E000E100E080E100E0024B10305A
:1025B0009B688000C058704700ED00E070B50D00CA
:1025C000EFF3108672B60F4A1368002BFCD0BFF3EE
:1025D0005F8F0D4B10309B6884001B590B4A934250
:1025E00003D09D4201D000F09DFE074B9B681D511A
:1025F000BFF35F8FBFF35F8F0022024B1A6086F339
:10260000108870BD240100D000ED00E0CD01001065
:10261000F0B5DE4657464E464546E0B50C0083B061
:10262000EFF3108872B65D4A1368002BFCD0BFF33D
:102630005F8F5B4B5B499A68030010339F00D5594D
:102640008D4239D0A5424AD0574EAA1B2F2A33D8E3
:1026500001229246824091464846544A12681040F0
:1026600001904846524A1060BFF35F8FEFF3058236
:102670009346002A35D0934201D000F053FE2A0041
:1026800053469A439068844208D175E04B005B182A
:102690009B00F3189868A04234D01A0006215156C6
:1026A0000029F3DA844253D0019B002B26D04A46FE
:1026B000404B1A603D4B1A60394B9B68DD51BFF3AC
:1026C0005F8FBFF35F8F0022344B1A6088F310884E
:1026D00003B0F0BCBB46B246A946A046F0BD0D0013
:1026E000EAE72A0053469A4390688442D6D10620EE
:1026F00010561300002809DA0D0031E04A462C4B31
:102700001A60D9E706201856002822DB420011186B
:10271000890074188A46A1689960E179D971062107
:1027200061569971002925DBA488F11A64052415E6
:1027300054440919E0240905490D240221439980D4
:1027400013181D4A9B001178F31899711070ABE7AC
:1027500013005946002914D1FF3191711749918016
:1027600015490A789A71164A9B1B5B415A43120D10
:102770000A7099E71349E2E7062010561300002873
:10278000C4DA114A1149D21A083A5002400D0143E5
:1027900099800F4952080A43DA8085E7240100D066
:1027A00000ED00E0CD010010B813002000E100E0D2
:1027B00080E100E080E200E01A3D002001BDFFFF63
:1027C000AAAA000001BD0000F213002000F0FFFFE4
:1027D00000F8FFFF70B5EFF3058101240443EFF328
:1027E000108C72B6214A1368002BFCD0BFF35F8FA8
:1027F0001F4B05001F4AED1A6D416A43120D1E4D15
:102800008900AE6852B27658A6421CD006215956AD
:1028100091421CD012215956914222D01E21595664
:10282000914220D02A2159560324914210D0134BB3
:1028300019781A708171BFF35F8F00220B4B1A60F9
:102840008CF3108870BDAB680D4C5C50EFE7002432
:102850006100091989005B18FF2199710949998064
:10286000E5E70124F4E70224F2E7C046240100D0A2
:10287000B8130020AAAA000000ED00E01A3D0020D5
:10288000CD01001001BDFFFF054B064A1360064A4B
:10289000136053609360D360136153619361704719
:1028A0008080808000E400E004E400E0024B9C466D
:1028B00061448900016070474000003410B5040095
:1028C000FFF738F901002000FFF7F0FFFF23237125
:1028D000BFF35F8F10BDC04610B50400FFF72AF9A3
:1028E00001002000FFF7E2FFFF23A380BFF35F8F0B
:1028F00010BDC04670B505000E001400002923D09D
:10290000002A12D080686B689847296800280ED08A
:1029100063001B197200033B9219CB18033A9E7097
:1029200088188A5C002A11D10470300070BD7300D1
:102930009B196200033B1219CB18033A9C7088184C
:102940008A5C002A05D106702000EFE75A700470F7
:10295000EBE75A700670F7E730B583600023CCB21E
:1029600043730133047342608373C4730D000068C2
:10297000012C06D9421C0133DBB2137003329C4296
:10298000F9D1FF2129404B005B18C0180023033800
:10299000437030BD70B505000C1E07D063000168A0
:1029A0001B19033BCB185A78002A01D1200070BDB7
:1029B000500080180338091800204E784870210014
:1029C00058702800FFF796FF310004002800FFF739
:1029D000E1FF0600002C26D00028E7D021003200BD
:1029E000A8686B689847296800280ED073009B1967
:1029F0006200033B1219CB18033A9C7088188A5C5A
:102A0000002A00D05A700670D0E763001B197200CC
:102A1000033B9219CB18033A9E7088188A5C002AEF
:102A200000D05A7004703400C0E7C046F0B5574675
:102A30004546DE464E46E0B50D006F0001687F1941
:102A4000033F0400C85D83B00192CA19002850D02A
:102A500043001B18033BCB185E78B446002E1AD1F6
:102A6000019E002E42D0E67B002E04D073009B19FD
:102A7000CB18033B5D70A37B002B00D1A573E573DE
:102A800000282FD10023537003B0F0BCBB46B246E0
:102A9000A946A046F0BD72006244033A8A185178F4
:102AA000884600215170894659703200010020008B
:102AB000FFF720FF43468246002B07D05B002168CA
:102AC0004344033BCB185A78002A16D1424651465C
:102AD0002000FFF70FFF2168019BCA19002BC2D10C
:102AE0000028CFD043001B18033BCB18002199705E
:102AF000C8E7019B002BB6D1C4E75000801803380B
:102B00000918487883464846487058704146200066
:102B1000FFF7F0FE594680462000FFF73BFF414695
:102B200002002000FFF7E6FE8046CFE7F0B55746EB
:102B30004546DE464E46E0B583B00191457B040034
:102B40006F0000687F19033FC15DC219002952D090
:102B50004B005B18033BC3185E78B446002E1CD1B3
:102B6000019E002E44D0E67B002E04D073009B19FA
:102B7000C318033B5D70A37B002B00D1A573E573E5
:102B8000002931D1002328005370617303B0F0BCD9
:102B9000BB46B246A946A046F0BD72006244033A65
:102BA000821850788046002050708146587032005C
:102BB0002000FFF79FFE43468246002B07D05B00B4
:102BC00021684344033BCB185A78002A17D1424668
:102BD00051462000FFF78EFE019B01002068C219BC
:102BE000002BC0D10029CDD04B005B18033BC3188C
:102BF00000209870C6E7019B002BB4D1C2E75000BB
:102C00008018033809184878834648464870587039
:102C100041462000FFF76EFE594680462000FFF730
:102C2000B9FE414602002000FFF764FE8046CEE771
:102C300070B5050000292CD0437B8B422ED04C0070
:102C400000686418033C0419A278002A21D05300BC
:102C50009B18033BC25CC6188A4202D11BE0002AC3
:102C600008D053009B18033BC3185A788A42F6D108
:102C700062785A70002301222800A3706370FFF766
:102C8000D5FE697B02002800FFF734FE687301203F
:102C900000E0002070BD63783370EBE7012219007B
:102CA000FFF7C4FEF2E7C04610B50C2082B000F07A
:102CB000FDF9FEF707FF002810D08B4B8B488B499E
:102CC0008B4A186059609860D960186159619861A1
:102CD000D961186259625A6202B010BD854CA06772
:102CE00000F03AFA0122844B1A60636C012BFCD18C
:102CF0000322824B1A607F4A936B012BFCD1013374
:102D000001217F4A7F480093043300F07FF90523B7
:102D10007D4A009301217D4800F078F97C4B5A6888
:102D2000FF2A02D8802252005A608022734B6E4CD8
:102D300012011A602169002907D0606901F0BCFE08
:102D4000013043001B18033BFDD2E022704B714859
:102D500019680A40026002221968514001320A4093
:102D6000042102609A681142FCD080216A4A09015C
:102D70001160802252005A60684B2361684B596889
:102D8000FF2900D85A60032201215B4B1A60644A74
:102D900093681942FCD0E023106803406148036047
:102DA000126803234A40022113405D4A036093687E
:102DB0001942FCD080215C4B0901196080215B4BDA
:102DC0004900516063615A4B5A68FF2A00D8596024
:102DD0008022584B12011A60E169002907D060690E
:102DE00001F06AFE013043001B18033BFDD2E023D3
:102DF0004F4A11680B4050490B6080214F4B09012D
:102E000019608021394B49005160E3614C4B5A688D
:102E1000FF2A00D8596080224A4B12011A60216AA9
:102E2000002907D0606901F047FE013043001B18FC
:102E3000033BFDD2E023424A11680B4042490B603C
:102E40008021424B0901196080235B00536080227E
:102E5000264BD20223623E4B5968914200D25A60FF
:102E600080223C4B12011A60616A002907D0606918
:102E700001F022FE013043001B18033BFDD2E0238A
:102E8000334A11680B4034490B608021334B0901F0
:102E900019608023DB025360154B6362304B5A6824
:102EA000FF2A02D8802252005A6080222D4B120144
:102EB0001A60A169002907D0606901F0FDFD0130A9
:102EC00043001B18033BFDD2E023254A11680B4049
:102ED00025490B608021254B0901196080235B0087
:102EE0005360124BA361F7E650220020006CDC0215
:102EF0001BB70000008000403CB0004030B00040F4
:102F0000002F685900800240008C864700C00240B4
:102F1000308000403090004030A00040001BB700DF
:102F20003C8000403C9000403CA00040405973076A
:102F30005480004054B000405490004054A00040E1
:102F40006080004060B000406090004060A00040A1
:102F50006C8000406CB000406C9000406CA0004061
:102F60004880004048B000404890004048A00040E1
:102F7000014B8000C058704750220020094A10B50C
:102F800094464024830063441A68C0006240803441
:102F900014408022520113431C60034B9C46604442
:102FA000416010BD04C0014000400140074B80005B
:102FB0009C4660440368C90092000A435A400C23AF
:102FC0001A4080235B0103431A60704704C001402C
:102FD0000123D0228340120693629361094A402163
:102FE0009446830063441A68C0004A40803111400F
:102FF0008022520113431960034B9C460523604411
:103000004360704704C0014000400140F8B504002F
:1030100021481D0017000E0001F04EFD0100380090
:1030200001F04AFD069B29041B0319432368002B6A
:1030300020DB1A4B1A4DE21853425A4180235B01A0
:103040009C461203174B62441A60174B1A60170014
:10305000AB689F43FBD1C022231D92011A43212359
:103060002660A06013602368002BFCDA0823E1606F
:103070001360F8BD3F2322681340B342D9D1A3683F
:103080001B051B0D8342D4D1EE22E368D20213400C
:103090008B42CED1EDE7C046001BB7000040FDBF1C
:1030A00000C0004000E0004000F000408023024AE1
:1030B0009B000343D362704700800540024B1A68AF
:1030C000024B5A607047C046E43B00200080054038
:1030D000194B1A4A10B5DA618022194BD2051A60D1
:1030E000184C194A146000290AD0E022174BD20468
:1030F0001A60002809D18022144B12061A6010BDF4
:10310000E022D2041A600028F5D043011B1A9B006C
:103110001818802300015B04984209D203000C4A6E
:1031200013608022044BD2055860084B1A60E6E712
:10313000084B1800F3E7C046008005402131B76A0C
:1031400000B00540FCFF01000820014000A0054040
:10315000E43B0020FFFFFF00AA23064A1B01136087
:103160002133FF33D3600449044B19605368002BAB
:10317000FCDA70470040024000B0FA0000600240F4
:103180002C4B2D4A70B51A602C4A2D4B2D491A60D4
:1031900014008B689C43FBD12B4D2C4EB54208D2BA
:1031A000013E761BB60808CD984723000134B34290
:1031B000F9D1FFF779FD264A214B1A60214A93681D
:1031C000DB43DB01DD09002BF9D14022214B224CEE
:1031D000224E9A675A671A67DA66B44208D22368A1
:1031E0002000002B20D00834FFF776FBB442F6D342
:1031F0001B4C1C4EC022B168200002F011F9B460D3
:10320000FEF78AFCFFF740FBFEF732FE164C174E26
:10321000B44208D2013E361BB60808CC98472B00B2
:1032200001359E42F9D170BD0834FFF747FBB44227
:10323000D5D3DDE700E00040BFCDFBFEFE7F3C00C4
:1032400000F0004000C00040D81E0020E81E002012
:10325000FFFFFF0100F00140D01E0020D81E00201B
:103260000000002000ED00E0E81E0020301F0020DC
:1032700000BEFDE7094A03001068002805D0084990
:10328000C3188B4207D81360704706480449C31817
:1032900010608B42F7D901204042F5E7C43B002083
:1032A000000004201C3D0020002070470120404207
:1032B0007047C04610B5FFF7DBFFC04630B50D00C4
:1032C00083B01900002A0BD0074B084C01920093E1
:1032D00002002B00200001F055FB0120FFF7C8FF82
:1032E000034B1A00F1E7C046442404105424041090
:1032F000B42104100FB400B5084883B002F086F979
:10330000049B002B07D005A91800019101F05AFB7E
:10331000034802F07BF90120FFF7AAFF8424041080
:103320002023041010B50148FFF7E4FF9424041093
:103330009A4200D2885470477047C046F8B5574645
:103340004546DE464E46E0B598460A9B06009A463C
:103350000D9B0F00934615009B0710D10B9B0C9AF9
:1033600093420CD213005C460B9A9D1A5D442200D6
:103370004346013439002020B047A542F7D10B9CC9
:103380006319002C09D01D0053462A1B013C185D0F
:1033900039004346B047002CF6D10D9B9B070ED554
:1033A0005B46EC1A0C9BA34209D999462A00434676
:1033B000390020200134B0470135A145F6D8280056
:1033C000F0BCBB46B246A946A046F8BDF0B54F4694
:1033D0004646D646C0B584B098460EAB1B78944698
:1033E0009946129B0D9C109F119E9A0724D4002E83
:1033F0006AD1BC4220D201221A409246202C00D130
:10340000CBE00C9A551E302201E0202C30D0013444
:103410002A55A742F9D85246002A0DD0B4420BD201
:103420000C9A551E3022202C02D126E0202C61D08F
:1034300001342A55B442F9D1DA0634D55A0562D49A
:10344000002C5CD10F9A102A00D191E0022A00D101
:10345000A1E030220C9C227001244A46002A5CD153
:103460005A0700D47DE02B220C9D2A5501341CE024
:103470005246002A02D0202E3CD92024DA0614D548
:103480005A0512D4202F00D197E0202E3BD12026C0
:103490001F2234000F9D102D00D181E0022D4CD051
:1034A00030250C9FBD54202CD7D103930C9B624632
:1034B0000093029643460194FFF740FF04B0E0BC3E
:1034C000BA46B146A846F0BD012215001D40AA46E5
:1034D0001A4227D04A46002A33D10C321A4230D140
:1034E000BC429BD2202C00D08BE7202EC5D8DA0618
:1034F000A4D4DAE72024DA06D7D55A0503D4A742A4
:1035000021D0B4421FD00F9A102A21D0022A10D005
:10351000202CCAD022000134C2E72D220C9D2A554E
:103520000134C2E7BC4200D386E7202C00D068E714
:10353000E1E7202CB9D02200013462250C9FBD5454
:10354000E6E7013ECCE7621E012C00D17AE7A1E755
:103550009A0616D4202CA8D078220C9D2A55013426
:10356000D6E71A07A1D520220C9D2A5501349CE7E5
:103570009A060ED478220C9C2270302262700224AB
:103580006BE7202C91D058250C9A12191570013434
:10359000BEE75822EFE76222EDE7002AA7D1AAE7AB
:1035A000023C9D0604D478250C9F3D551400B1E7DC
:1035B00058250C9F3D551400ACE71F226AE7C04612
:1035C00010B5002800D110BD01F0D4FFFBE7C046C4
:1035D0000B0010B5002802D049681B68984710BD41
:1035E000F0B557464E464546DE46E0B599B08246B0
:1035F000894690460993229A239B1000190001F0F6
:103600001CFD002800D0C8E0229823990122D54B48
:10361000524201F00DFD002800D0BEE0229823990F
:103620000122D14B524201F0EDFC002800D0B4E061
:10363000229823990022002301F0E4FC002800D006
:10364000E9E1229E239F8023269ADB001A400D92F7
:10365000269A1A4201D1062324933B00334300D01B
:10366000B4E0269B1B0500D5BFE1002300240A938C
:103670000B94002304250C93259B0024AB4200D916
:103680005C1B0223269A1A400D92269A134203D0FD
:103690006B426B415B421C400C9B002B07D00A9A8B
:1036A0000B9B3000390001F04CFC06000F00229803
:1036B00023990022002301F0A5FC002803D08021DB
:1036C00009067B181F00269AA84B00960197134005
:1036D000099E0493249B0394029342463300494677
:1036E000504600F0A7F90400002D67D02020269A4C
:1036F0004946024013005A4253415B42621C184043
:103700000A92330022004530D0470C9A6F1ED3171F
:10371000D4185C40D30F9B46002501E0202D13D028
:1037200008AA94461F23200063440A2101355E192C
:1037300001F0C2F93031317020000A2101F0BCF9EA
:1037400026000400092EE9D80523069300230493DC
:103750000A3303935B46099E029310AB0A9A0093C7
:1037600049463300504605970195FFF72FFE0D9A05
:103770000400002A22D04246851A259AAA421DD961
:10378000B0465746160022004346494620200135E0
:10379000B8470134AE42F6D810E0269B4246049367
:1037A000259B49460393249B50460293229B239CCE
:1037B00000930194099B00F03DF90400200019B02A
:1037C000F0BCBB46B246A946A046F0BD684B7800A7
:1037D0009C46400D604401F043FC664A664B01F094
:1037E000CAFB664A664B01F0A7FB664A3B031B0B0C
:1037F0001A4304000D00644B11003000002201F058
:1038000096FB624A624B01F0B6FB02000B002000FF
:10381000290001F091FB01F03BFC0C9001F020FC31
:103820005C4A5D4B04000D0001F0A5FB00225B4BE0
:1038300001F082FB01F02CFC594A8346594B2000D1
:10384000290001F098FB040058460D0001F008FC27
:10385000554A564B01F08FFB02000B002000290057
:1038600001F065FB02000B000A900B9101F083FB55
:1038700004000D000A980B9902000B0001F05CFB9C
:1038800000220E900F914A4B2000290001F059FBB5
:103890000022484B01F050FB02000B0020002900E1
:1038A00001F04FFB0022444B01F046FB02000B00ED
:1038B0002000290001F045FB0A9A0B9B0D00802196
:1038C0000400C905002001F032FB02000B002000BB
:1038D000290001F031FB394C02000B000E980F99C2
:1038E00001F02FFB5C440022264B01F025FB230551
:1038F000002201F040FB04000D0002000B0030002C
:1039000039000A940B9501F07DFB00285ED123005D
:103910002A00C6250C9963318D42AD4126996D422E
:103920000435090500D4A7E6134364D030003900FC
:10393000234A244B01F074FB002807D000223000FA
:103940003900214B01F05EFB002854D1249B002B51
:1039500000D191E60D9B5A1E9341249AD31A2493C9
:103960008AE6C046FFFFEF7FFFFFEFFFFFF7FFFF95
:1039700001FCFFFFFB799F501344D33FB3C8608B1A
:10398000288AC63F0000F03F0000F83F61436F63A4
:10399000A787D23F71A379094F930A400000E03F07
:1039A0001655B5BBB16B0240EF39FAFE422EE63F29
:1039B00000002C400000244000001840FF030000DD
:1039C0002D431CEBE2361A3F80842E410C9B0022D3
:1039D000013B0C932000164B290001F0B2FA0A00BB
:1039E000010003000A910B9293E7002300240A933D
:1039F0000B9400230C93249A0C9B9A4214DDD31A47
:103A0000013B24938023269ADB001A4300230025E0
:103A100026920C9330E6802212069446229B1E00CA
:103A2000239B63441F000EE600232493EAE7C0466D
:103A300000002440F0B54546DE464E465746E0B508
:103A400095B08B46904699461E9A1F9B0A90190086
:103A50001000209D01F0F1FA002800D0B0E11E987E
:103A60001F990122C74B524201F0CCFA002800D026
:103A700037E11E981F990122C34B524201F0D8FA38
:103A8000002800D0A7E01E981F990022BF4B01F02C
:103A9000CFFA002800D088E01E981F990022BC4B66
:103AA00001F0B0FA002800D07FE01E981F99002294
:103AB000002301F0A7FA002800D0FAE000230B93BE
:103AC0008023229C229ADB001C401A4200D102E192
:103AD000092D00D87EE106A98C462C001722002370
:103AE0003021093C62440133D154EF1A202B00D11C
:103AF00032E1A342F7D10022A44B069207931E980D
:103B00001F9901F0C5FA050001F0AAFA02000B00A6
:103B10001E981F9901F00BFA069A079B01F02BFAE9
:103B20000890099101F0D8FA060001F095FA020018
:103B30000B000898099901F0FAF90022954B0890BA
:103B4000099101F075FA002800D1D2E00136300069
:103B500001F082FA069A079B01F062FA002801D070
:103B600000260135AA46002F00D098E0280001F079
:103B700077FA02000B001E981F9901F0D8F9854BC7
:103B8000002206000F0001F03DFA0CAB9A46002817
:103B900045D10022300039007E4B01F049FA00285F
:103BA0003DD1EB073BD5013539E0229B42460493DA
:103BB000219B594603930A981E9B1F9C02950093D4
:103BC00001944B46FFF70CFD15B0F0BCBB46B24666
:103BD000A946A046F0BD229B5B0767D403226E4B2B
:103BE00022990192039121990291009342464B46FA
:103BF00059460A98FFF7A2FBE6E706AA9446172360
:103C0000280063440A2101341E1900F02DFF3031D1
:103C1000280031700A2100F027FF051E76D0202CE5
:103C2000EBD10323229A1340012B1DD1219B002BA2
:103C30001AD00B9B002B00D0BBE0229A0C3313420E
:103C400000D0B6E0219BA34200D887E006AB9C469B
:103C500017223023624404E02199013413558C4229
:103C600059D0202CF8D12024229B01940393219B2E
:103C700002935346B9E706AA944617230A216344E0
:103C8000300001341D1900F017FF30312970300069
:103C90000A21013F00F010FF092E46D90600202C12
:103CA000E9D155460CAB20249A46B8E704223B4B99
:103CB00096E71E9A1F9B0020002101F038F901238E
:103CC0000B938023229C229ADB001E901F911C40A4
:103CD0001A4200D0FCE60022314B062706920793D9
:103CE0000DE7229B0393219B0293042301932D4B09
:103CF0007BE7002208980999264B01F083F90028F8
:103D000000D02FE7002E4FD101362BE70323229A54
:103D10001340012B68D0202CA6D00B9B002B1FD06A
:103D20002D235246135501349EE75546202CB9D019
:103D300030223B19002F4BD0172006A90134091857
:103D40000A55202CAED09C42F6D10CAA92462E22C7
:103D500051465C1CCA5462E72024CCE6202C83D058
:103D6000229B5B0708D4229B1B0700D47CE72023FF
:103D700052461355013477E72B235246135501342D
:103D800072E7C046FFFFEFFFFFFFEF7F65CDCD413C
:103D900065CDCDC10000E03FA8240410A02404108C
:103DA00080842E41B0240410F30700D4DAE60136F3
:103DB000D8E6219B013B2193A34200D946E7AAE71D
:103DC000229B0393219B029303230193084B0CE74F
:103DD0002300BAE7074BEA009B185C681B682F00BA
:103DE0000693079400248AE6219B002B93D020E7BA
:103DF000AC24041058260410F0B5DE4657464E4653
:103E00004546E0B59FB01C00289B93460A93CC4AD8
:103E1000CC4B8A4609901A60002900D14DE100235D
:103E200020789946002800D14FE1C74B4D460893B2
:103E3000C64B0D930AE02A006E1C5B46099D514655
:103E4000A847350001342078002872D02528F2D107
:103E500010239946083B9846043B00219C460227C4
:103E60000134207826000300203BDBB2102B03D85E
:103E7000089A9B00D3589F460300303B092B6ED90C
:103E800000272A2800D18AE000230B932E2800D196
:103E900076E00300683BDBB2122B1BD8AC4C9B00D6
:103EA000E3589F46012301341943DAE739430134CB
:103EB000D7E7634601341943D3E74B46013419432E
:103EC000CFE7434601341943CBE780235B0070788A
:103ED0001943013667280AD824281FD90300253B37
:103EE000DBB2422B1AD80D9A9B00D3589F46030091
:103EF000693BDBB20F2B11D801249C40954AA446A4
:103F0000904614400C9462464446224200D025E27A
:103F10000A2B00D101E1072B00D1D8E0099C2A002F
:103F20005B465146A04770786F1C741C3D0000280A
:103F30008CD1A9462C00CB4503D801235B425B44BE
:103F400099465B464A4651460020099DA8472000F5
:103F50001FB0F0BCBB46B246A946A046F0BD002744
:103F6000BB00DF1901367F003F183078303F030077
:103F7000303B092BF4D900230B932E2800D088E77F
:103F800080237078DB0019430300303B741C092B3D
:103F900000D82CE12A2800D138E1260079E70A9BD5
:103FA00080CB002F03DB60780A93661C6CE702224B
:103FB000607811437F420A93661C65E7672800D149
:103FC000C8E1472800D104E2452800D104E20720D7
:103FD0000A9B04910733834319000B9A03970292BB
:103FE0000CC90998009201930A912A005B46514638
:103FF000FFF7F6FA741C050025E770786C2800D1ED
:104000000DE280235B001943013663E780239B00A8
:104010007078194301365DE77078682800D1F9E1BE
:1040200080230136194355E7462800D18FE1072048
:104030000A9B04910733834319000B9A039702925A
:104040000CC90998009201930A912A005B465146D7
:10405000FFF7F0FC741C0500F5E62A00099C5B469E
:10406000514625206F1CA0473D00741CEBE68907D4
:1040700000D4DEE10A9B2A0098466B1C9946434611
:1040800001CB51469846099C5B46C0B2A047ED194A
:10409000012F00D893E24C46B1465646099F2200B4
:1040A0005B46013431002020B847AC42F7D1B2461C
:1040B00043464E460A93741CC5E6274B2078099365
:1040C00000239946002800D0AFE6002433E70A9B7E
:1040D0001A0008CA9046002B00D1A7E0212008430F
:1040E0000EA98C461F2262440F27AC46814615005C
:1040F0000C9C02E0202C0CD013003800184001006A
:104100003731092800D80739013429551A090F2BEE
:10411000F0D8654648460C9494E00A9B1A0008CAF9
:1041200012920B9A002A7BD102241A786442002A48
:104130001DD0013418199C461C00030010E0C04635
:10414000F93D0010E03B0020B8240410482504107D
:10415000FC24041041900000393300109C4203D02D
:10416000607801340028F9D16346E01A0C90802071
:10417000C0008446084080466046014204D00B9847
:104180000C9C844200D90C900220844608400A907E
:104190006046084200D189E1101E00D170E142461C
:1041A000002A00D11BE10B9A5B1B9046A8444446B1
:1041B0002A00B84699465746B246099E09E05B4632
:1041C0003900551CB0474B46585D002800D12CE102
:1041D0002A009442F3D156462500BA4647460A9B28
:1041E000002B00D04CE1129B741C0A932BE600229A
:1041F00093009B185B0001341A182078303A0300B2
:10420000303B092BF4D926000B9242E60A9B02367A
:1042100004CBD043C01702400B9230780A9338E6A3
:104220001A78002AA3D00B98441E82E710230800B6
:1042300080279843113318430B00FF003B4039425D
:1042400000D14DE7082305930B9B2A00049310230C
:104250000393002302930C9B0690019316AB0093EB
:1042600051465B460998FFF7B1F843460500741CB8
:104270000A93E8E5622800D1A6E1582800D1B1E10F
:1042800080230A00DB001A409046194200D189E1E0
:10429000112399438C46802362469B001A401000EC
:1042A00062461A4200D023E1802364465B001C4032
:1042B0001A4200D032E263465B0600D56BE16346EA
:1042C0000A991B0600D4DBE208C91BB2DA1798185A
:1042D000504080B20A91DA0F0C92002B00D118E204
:1042E00080460EAA91461F234B441395E14645464E
:1042F0001297B0461E0001E0202C0FD028000A21A2
:1043000000F0DAFB013437193031397028000A2106
:1043100000F0D2FB2F000500092FEDD84646CC4611
:10432000129F139D634606930B9B059704930A23E4
:1043300003930C9B029316AB2A0001940093514601
:104340005B460998FFF742F8741C05007BE52023C3
:1043500019436CE680231B01194338E6782800D006
:104360007CE180230A00DB001A409146194200D10B
:10437000A5E20D239943080003330C938023020028
:104380009B001A409046184200D078E18023040038
:104390005B001C40184200D007E2430600D453E201
:1043A000FF210A9B04CB0A4090460A934346002B08
:1043B00000D026E1103398434B46002B00D120E17A
:1043C00000240B9B069004930C9B059703930023FA
:1043D000B0E780231B01194320231943F7E55B1B3A
:1043E00099460C9B099C98465B46B3465646BA468E
:1043F0001F002A003B003100A0474B460135585DA5
:104400000028F6D143460C933B005746B2465E4621
:104410009B46E4E6C023B078194302365AE5C02330
:104420009B00B0781943023654E55646BA464746D3
:10443000D5E6012F00D832E26B1E9846B8442C0016
:10444000A9464546B8465746B246099E22005B46F5
:10445000013439002020B047AC42F7D10A9B5646C0
:1044600001CBBA464746984622005B46099C514616
:10447000C0B2A0474D464346ED190A93741CE2E4CE
:104480000C9BA8469F4200D8ADE64446B04656462F
:104490007D19099FED1A22005B460134310020206E
:1044A000B847AC42F7D1B24646469CE60C988742E4
:1044B00000D8F0E1424698467919B9465746B246C7
:1044C000099E0C1A0C922A005B4601353900202007
:1044D000B047A542F7D15646BA464F4643460C9AD6
:1044E00090467A1C0C921A78101E00D057E67AE695
:1044F0000822072191460A9B07338B4399444A4679
:104500000ACB0C000A921C43DA0F002C4ED0D817AD
:10451000040010904C4011900E94109811990C00CA
:104520005C400F940E9B0F9C1B1A8C410E930F94B2
:104530000EA988461F23002443441297B046270043
:1045400013951E000E9C0F9DE1460C9201E0202F5A
:1045500010D0200029000A22002300F0EBFA0137D6
:1045600030322B00F2550D0022000400002BEED15A
:10457000092AECD84646CC460E940F950C9A3C007E
:10458000139D129F634606930B9B059704930A2382
:1045900002920393CFE6FF230A9904C9134018003F
:1045A0000A9198E6102399438C4674E6434600240A
:1045B000002BE7D1002300240E930F94B8E7434665
:1045C0004D460A93741C3EE480230A00DB001A4027
:1045D0009146194200D140E10D2399430B3B08005D
:1045E0000C93CBE680230A00DB001A409146194267
:1045F00000D162E10D2320209943033308430C933B
:10460000BCE66123810600D541230EA91F228C46FA
:10461000DBB262440A3B13971495814645460C9FD2
:10462000B0461293160008E03033DBB20134335544
:10463000BD420ED3202C0CD005003900280000F01C
:104640003BFACBB20929EFD9129A94466344DBB204
:10465000ECE746464846139F149DB2E66F2800D00B
:104660003CE10C230800984380230A00DB001A4039
:104670009146194200D02AE108230C937EE60A995C
:10468000FA3BFF3B0731994301339C468C44634618
:104690004A680A930B6890469C461343191E06D13C
:1046A0004B46103100248843002B00D089E661215D
:1046B000830600D541210EAA91461F234B449946FB
:1046C000C9B20C9B0A3913971495159645464E4668
:1046D000002467469846814612910CE03032D2B2EF
:1046E000002301343255AB4200D1BCE0202C00D174
:1046F000BCE007000D00424600233800290000F00E
:1047000019FAD2B2092AE9D9129B9C466244D2B264
:10471000E6E74346002B00D004E6E2E50A9C08CC1D
:10472000DA0F1392002B00D1A5E0D9175B184B408C
:1047300098460EAA91461F234B440C95A146454628
:104740001296E04606001C000A9701E0202E0FD0CA
:1047500028000A2100F0B0F90136A719303139706C
:1047600028000A2100F0A8F92F000500092FEDD834
:10477000C4464C4630000A9F0C9D129E6346069329
:104780000B9B2A0004930A230393139B019002932B
:1047900016AB009351465B4609980597FEF716FE47
:1047A0000A940500741CFFF74EFB0A9B10CB149370
:1047B000002C04D1102398434B46002B2CD16123AD
:1047C000810600D541230EA91F228C46DBB262442C
:1047D0000A3B12971395814645460C9FB0460A93B3
:1047E000160008E03033DBB201357355BC420ED3FE
:1047F000202D0CD004003900200000F05DF9CBB270
:104800000929EFD90A9A94466344DBB2ECE748469B
:104810004646129FA846139D0B9B2A0004930C9BAF
:1048200006900393002302934346019316AB009333
:1048300051465B4609980597FEF7C8FD149B050095
:104840000A93741CFFF7FFFA03061FD50A9B02CBDD
:1048500009040A0C90460A93A8E50C2399430A3BE5
:1048600008000C938AE5B84500D83FE74846139FF7
:10487000149D159EA5E54346002B00D07EE758E722
:1048800008C9DA17981850400A9124E50A9B04CB0E
:1048900090460A938AE5010001310C9124E60A9FB3
:1048A0006C1C01CF2A005B46099D5146C0B2A84747
:1048B00025000A97741CFFF7C6FA202319430C231E
:1048C000994300239946103308000C9356E50823BA
:1048D0008C460C930D23604698434FE510230A0045
:1048E0009A439446692808D180230A00DB001A40C5
:1048F0009046194200D1CEE4CAE41C230800984334
:1049000080230A00DB001A409146194202D10A2393
:104910000C9333E50A230C93DCE7C0460EB4012266
:1049200030B584B007AC08CC064D010000942800D7
:1049300052420394FFF760FA04B030BC08BC03B0E5
:104940001847C0463133001010B5054C82B00093B3
:1049500013000A0001002000FFF74EFA02B010BD5C
:104960003133001000B585B003910121029000930E
:10497000034813004A4202A9FFF73EFA05B000BD02
:10498000D13500100FB430B50C4985B008AA08CA5B
:104990000D680392002D0CD000920122084C524267
:1049A000200002A9A847012005B030BC08BC04B013
:1049B0001847180000F02AFE0020F5E7E03B002031
:1049C000C135001010B5094A0300146884B0002CEA
:1049D00008D0012200910648524203A9A0470120B5
:1049E00004B010BD00F012FE0020F9E7E03B00200B
:1049F000C135001001480421014B18470014002064
:104A0000254A0010142310B50100188804331B88B0
:104A1000984710BD162310B50100188802331B8873
:104A2000984710BDF8B54746CE4680B50F1E19D041
:104A300014239946043304000025012698464B466A
:104A40001888434621681B88984701C4431E984133
:104A5000013540420640AF42F1D13000C0BCB946FA
:104A6000B046F8BD0126F8E7124A936F9B0815D2AD
:104A70009066D166002905D0FFE7FFE7FFE7516F99
:104A8000106F704704B580210906C21751400028F5
:104A900000D0C8433DF0ECF9002104BDF0B5146E20
:104AA000556E576F166FFFF7E3FF1466556657672D
:104AB0001667F0BD000000D0114A936F9B0813D217
:104AC00010665166002905D0FFE7FFE7FFE7516F49
:104AD000106F704704B5002801D00020C0433DF09E
:104AE000C7F9002104BDC046F0B5146E556E576F6E
:104AF000166FFFF7E5FF1466556657671667F0BD3A
:104B0000000000D094464A4A926F9208624601D251
:104B100028E0C046F0B5464E346E756E776F366F3E
:104B200000F020F89446424A1466556657671667A7
:104B30006246F0BD94463E4A926F9208624601D2A8
:104B400054E0C046F0B53A4E346E756E776F366FEE
:104B500000F04CF89446364A146655665767166757
:104B60006246F0BD002B24DB11D000293EDA00B5EF
:104B7000C943404200D1013100F038F8C9434042F6
:104B800000D10131DB43524200D1013300BD002A84
:104B9000EBD1002801D1002905D00020C90FC90799
:104BA00001D1C043410800B53DF02AF9002200239D
:104BB00000BD00B500290ADBDB43524200D10133BE
:104BC00000F014F8C943404200D1013100BDC9438F
:104BD000404200D10131DB43524200D1013300F0A9
:104BE00005F8DB43524200D1013300BD002923D137
:104BF000002B18D1002A0CD0BC460D4F38667A66BF
:104C000000210023FFE7FFE7FFE77A6F386F674671
:104C10007047002801D00748010000B53DF0F0F8CA
:104C20000022002300BD02000B000020002170477D
:104C3000000000D0FFFFFFFF002B00D0BFE0130CEF
:104C400028D1002AE7D080B4114F39667A66FFE791
:104C5000FFE730B4040C7B6F396F1B0423433B66C2
:104C60007A66FFE7FFE7FFE7C04684B27B6F3D6FE0
:104C70001B0423433B667A66FFE7FFE7C046002339
:104C80002C042D0C7A6F386F00196941B0BC704745
:104C9000000000D0F0B594460025140E01D1120298
:104CA0000835140F01D112010435940F01D192007F
:104CB0000235D40F01D152000135D40B0134254FF8
:104CC0007C66254C3C660E0C93B2FFE7FFE7FFE7DE
:104CD0003C6F6643360C7703BE467343DF0B5B04C1
:104CE000C01AB941130C7343DB18C91ACE086643C6
:104CF000360CB64493B273431F0F1B01C01AB9415F
:104D0000130C73431F0B1B05C01AB941860D8F028C
:104D10003E436643360C092D24DB520A7243801A47
:104D20007703460A6643360C16235B1BDE40DF40E2
:104D3000BF1964466643821B704604350633010082
:104D4000D940A840C01900D30131A24206D20023A5
:104D5000F0BD0000000000D0FFFFFFFF121B01307C
:104D6000F3D3F1E709277F1BFE406446A2B27243EA
:104D7000801A00D20139220C7243130C1204821AD9
:104D800099410B007046043513370100F940A840E3
:104D9000801900D30131002B02D1A2420AD2F0BD0A
:104DA000013000D30131121BFAD2013BF8D1A242EB
:104DB00000D2F0BD013000D30131121BF7E7F0B58E
:104DC0001C0C00D080E00CB400251C0A04D11B028E
:104DD000160E3343120208351C0B04D11B01160FAB
:104DE0003343120104359C0B04D19B00960F3343CF
:104DF00092000235DC0B02D192185B4101351C0098
:104E0000971864410134464F7C66464C3C660E0C54
:104E1000FFE7FFE7FFE7C0463C6F6643360C7703CA
:104E2000BE4697B27743C01B00D20139C01B00D2E7
:104E300001399FB27743C91BC91B170C77437E0406
:104E4000FF0B801BB941CE086643360C0C2D33DBBB
:104E5000B644120B1F053A431B0B97B27743C01B96
:104E600000D201399FB27743C91B170C77433E0428
:104E70003F0C801BB941860D8F023E4366432927B4
:104E80007F1BFE400C3D7746AF40BF1930BCA2B23D
:104E9000ABB272437343801A9941220C7243130CD4
:104EA0001204801A994102000B000137001BA9412E
:104EB000F9D2781E0021F0BD0C277F1BFE407746FB
:104EC0007F0BAF40FF19E0E700245D1C07D0144FB3
:104ED0007D663966FFE7FFE7FFE7FFE73C6F95B2C6
:104EE0009EB265436643401BB141150C1E0C6543E1
:104EF000664336042F0C3E432D04401BB1419942BA
:104F000004D202000B0020000021F0BD01D190422C
:104F1000F7D3801A994101349942F2D3F6E70000A1
:104F2000000000D0FFFFFFFF48404140484018B458
:104F3000134B5B68019308BD18B4114B1B680193B8
:104F400008BD94460F4A926F920805D2624618B483
:104F50000B4BDB68019308BD0A4AF0B5146E556E21
:104F6000576F166F6246FFF7F2FF064A14665566E2
:104F700057671667F0BD18B4014B9B68019308BDD5
:104F8000D8230020000000D0FFB5504042405040E0
:104F900059404B40594000E0FFB5154F4C00640D9F
:104FA00003D0BC4204D10C0314D80020090D09051C
:104FB0005C00640D03D0BC4204D11C030AD800225B
:104FC0001B0D1B0501264B4009D44B4003D58B42DA
:104FD00000D18242FFBD9942FCD19042FFBD0B43FC
:104FE000DB1803431343F5D0C9434918FFBD000044
:104FF000FF07000000B5FFF7CFFF01D0002000BD84
:10500000012000BD00B5FFF7C7FF804100BDC046CD
:1050100000B5FFF7C1FF01D9002000BD012000BD90
:1050200000B5FFF7B1FF01D9002000BD012000BD90
:1050300000B5FFF7A9FF804100BD012040054A00EF
:10504000121804D85A00121801D800207047012005
:1050500070470020704700000021002805D17047EC
:10506000C1174840401AFAD0C90713B5064B1B6850
:1050700098470CBC441CA2401005120B0349091BA5
:1050800009051943114310BDFC3B00201F0400001B
:1050900010B54C00620D8023D218DB00D21A5B05DC
:1050A0007E2A10DD9E3A13DACC170903490819430A
:1050B0005242D140640001341532202A05DAD04032
:1050C0000843604310BD002010BD0846604310BD7A
:1050D000C80FC018013810BD18B4024B5B6A0193A9
:1050E00008BD0000D823002018B4024BDB6D0193EB
:1050F00008BD0000D8230020C94211D300B54900E3
:105100004908002200F014F8002904D4002240428B
:105110008A41114600BD80210906002000BD000023
:1051200018B4024BDB6E019308BD0000D8230020A9
:1051300018B4024B9B6F019308BD0000D8230020D8
:1051400018B4024BDB6F019308BD0000D823002088
:1051500010B50148FEF7CEF8A8260410132370B549
:105160001D78012D15D010DD1B48FFF753FC1B4C9B
:1051700001008022200000F053F9022D06D01848CB
:10518000FFF740FC174B186070BD144C164BA3641E
:10519000F5E7164B114C23606360A360E360236165
:1051A0006361A361E36123626362A362E3622363D9
:1051B0006363A363E36323646364A364E3642365B9
:1051C0006365A365E36523666366A366E366236799
:1051D0006367A367E367D9E753440000D82300203F
:1051E0004C330000FC3B0020F151001051510010E5
:1051F00007B5604601880A0A0230DF2AFAD1C9B22F
:10520000820804D3028840880004104300E000684C
:10521000014A5050039007BDD82300205143434317
:10522000C9188C46110C83B24B4310B4040C614373
:1052300092B280B2504362431C041B0C001910BC94
:1052400059411304120CC0185141614470470000C9
:105250004840414048400E4B5B6818470C4B1B6868
:1052600018470C4A936F9B0802D2094BDB6818471A
:10527000F0B5146E556E576F166FFFF7F6FF054ABF
:105280001466556657671667F0BD014B9B68184753
:10529000003C0020000000D007B548404140484095
:1052A00001E0C04607B54200120E03D0FF2A03D129
:1052B000420218D8C00DC0054A00120E03D0FF2AC2
:1052C00003D14A020FD8C90DC9050122414005D4B6
:1052D000414001D5814207BD884207BD01434918BD
:1052E00001D0C043001807BD00B5FFF7DBFF01D0B8
:1052F000002000BD012000BD00B5FFF7D3FF01D99C
:10530000002000BD012000BD01231B064200D21871
:1053100004D84A00D21801D80020704701207047F5
:10532000C10FC90700D54042002817D0F44603B486
:105330000B4B1B68984706BC81409E384042803129
:1053400007D20B0607D04900490AC005104308439D
:1053500060470130F8E7490A8902F5E77047000025
:10536000FC3B0020014BDB6F18470000003C002095
:1053700010B50148FDF7BEFFB4210410132310B58A
:1053800010481C78FFF746FB0100012C0AD003DD12
:1053900080220D4800F044F80C48FFF733FB0C4B1B
:1053A000186010BD084C5422200000F039F822008B
:1053B000084980322368002B00D1216004349442D4
:1053C000F8D1E9E753460000003C00204C330000D0
:1053D000FC3B00207153001010B5040030F012FAAD
:1053E000002804D0034B04199C4200D810BD024889
:1053F000FDF780FF00000420C026041010B530F037
:105400000BFA10BD01480421014B1847101400206D
:10541000254A0010014B1B6818470000101400209B
:10542000014B5B68184700001014002010B5FFF70F
:10543000D3FF10BD10B5FFF7CFFF10BD10B5FFF7BC
:10544000DDFF10BD10B5FFF7D9FF10BD10B5FFF798
:10545000D5FF10BDF0B546464F46D646C0B5437D94
:1054600080460E001700002B4BD0002A32DD274B60
:1054700001259A464B1E00240020994607E0335D23
:105480000A2B2CD02B0001340135BB4213DA002C3F
:10549000F5D133780A2BF5D143461B7D002BF1D192
:1054A0004346504602211B68984728002B000134D0
:1054B0000135BB42EBDB874204DD4346391A1B68EA
:1054C00030189847F619013E33780D3B5A42534144
:1054D00042461375E0BCBA46B146A846F0BD4B46FD
:1054E0001B5D0D2BCED0A042DADA4346211A1B6891
:1054F000301898474346504602211B6898472800B9
:10550000D4E70368110030009847E3E760270410F0
:10551000F0B5C6460B6806000C0000B5802B06D01F
:105520005A1C2260E418267180BCB846F0BD0F4BAF
:105530001D68002D16D00B1D98460D4F02E02D69F9
:10554000002D0FD02B68002BF9D03B68002B01D029
:10555000AB42F4D1280041462268FFF77BFF2D695A
:10556000002DEFD101220023DBE7C046BC3B002029
:10557000C03B0020F0B5CE46474680B583B06B46B1
:105580000600DD1D2870FCF7E5FE00231A4A1218FC
:105590004B41802109068B4202D30122174B524214
:1055A0001749080088463CF083FC164B81461C686E
:1055B000002C14D0144F02E02469002C0FD0236873
:1055C000002BF9D03B68002B01D0A342F4D120007E
:1055D00001222900FFF73EFF2469002CEFD14B4642
:1055E000002B05D1300003B0C0BCB946B046F0BDB9
:1055F00040463CF0FDFBF5E740420F00FFFFFF7F18
:10560000D01E0020BC3B0020C03B0020F0B5DE4691
:1056100057464E464546E0B585B0070032F0E6F8FD
:105620000600FCF797FE00232B4A12184B418021FD
:1056300009068B4202D30122284B52422849080016
:105640008B463CF035FC274B01901C689A46002C99
:105650003BD0254B984602ABDD1D0A23994602E05C
:105660002469002C17D02368002BF9D043461B680F
:10567000002B01D0A342F3D1200032003900FFF704
:10568000E9FE4B462000012229002B70FFF7E2FEC5
:105690002469002CE7D1019B002B18D153461C68CC
:1056A000002C06D06368002B0BD098472469002C8F
:1056B000F8D1300005B0F0BCBB46B246A946A046C2
:1056C000F0BD2469002CEDD1F3E70028F1D0584655
:1056D0003CF08EFBE2E7C04640420F00FFFFFF7F39
:1056E000D01E0020BC3B0020C03B0020F8B5574630
:1056F0004E46DE464546E0B50E00170000282CD188
:105700001B4B1C4D1A685B6893469A461A4B994688
:105710001A4B98464B461C68002C03D115E02469AF
:10572000002C12D02B68002B01D0A342F7D1A36824
:10573000002BF4D03900300098470028EFDDF0BC92
:10574000BB46B246A946A046F8BD43465B6A9A45A9
:1057500008D84246926A5A4502D301204042EEE7F9
:105760009A45FAD101200021FCF7FEFDD2E7C046A0
:1057700018240410C03B0020BC3B00200040054022
:10578000F0B54646D6464F4601380D009046C0B5A6
:10579000012841D8FCF7DEFD0023214A12184B41B5
:1057A000802109068B422FD21E49474608008A46AF
:1057B0003CF07EFB43468146013303D1280032F0A2
:1057C00015F80700184B1C68002C14D0174E02E087
:1057D0002469002C0FD02368002BF9D03368002BEC
:1057E00001D0A342F4D120003A002900FFF732FE95
:1057F0002469002CEFD14B46002B09D14046E0BC78
:10580000BA46B146A846F0BD0122094B5242CBE749
:1058100050463CF0EDFAF1E701204042EFE7C04688
:1058200040420F00D01E0020BC3B0020C03B0020A7
:10583000FFFFFF7F012040427047C04601204042E9
:105840007047C046012040427047C0460300022214
:1058500000209A4240417047F0B5CE46474680B599
:10586000A3B004000D00FCF775FD0023294A1218AF
:105870004B41802109068B4202D30122264B524222
:10588000264F38003CF014FB002306000193220051
:105890002B00234801A9FFF765F8019B8046002BE8
:1058A00014D1204B1C68002C06D06368002B0BD051
:1058B00098472469002CF8D1002E25D1404623B00A
:1058C000C0BCB946B046F0BD2469ECE7154B1D6875
:1058D0009946002D1CD0144C02E02D69002D0FD0EC
:1058E0002B68002BF9D02368002B01D0AB42F4D1F8
:1058F0002800019A02A9FFF7ADFD2D69002DEFD117
:105900004B4601951C68CEE738003CF071FAD5E7AC
:105910000195D1E740420F00FFFFFF7FD01E00201E
:1059200011550010BC3B0020C03B00200FB400B557
:1059300083B004A901C90191FFF78EFF03B008BC31
:1059400004B0184700207047F0B5DE4657464E4673
:1059500045460122E0B5DF4D00242800DE4B83B030
:105960001A70DE4B1C3098461B686C609E68DC4BDE
:10597000AC609B462B60EC602C616C61AC6101F00B
:10598000CFF8D84BD84F9A462B6001235B429946FB
:105990006B6243461B682E6238005E685B461C30B3
:1059A0003B607C60BC60FC603C617C61BC6101F080
:1059B000B7F853463B604B467B6243463E62CB4E54
:1059C0005A4630001B681C30DB68326001937460FB
:1059D000B460F46034617461B46101F0A1F8019BBA
:1059E000524633624B467362C14B3260994618008F
:1059F00014F010FD4B4678221C67043B9C52083281
:105A00009C5004329C5004329C50DC67B94C2900F5
:105A10002200484614321C605A6014F09DFCB64DBA
:105A2000280014F0F7FC2B0000227C21083B5A527E
:105A300004315A5004315A5004315A5004315A50EA
:105A4000AE49280019601431996039002A675A60FC
:105A500014F082FCAA4D280014F0DCFC002278210E
:105A60002B1F5A5208315A5004315A5004315A509F
:105A70002A67AA6722003100143228001C602A60BD
:105A800014F06AFC9F4D280014F0C4FC0022782119
:105A90002B1F5A5208315A5004315A5004315A506F
:105AA0001C603100143428002A67AA672C6014F0A7
:105AB00053FC80229449954B92019967944B954DE4
:105AC0001869596702431A614346280000241B687D
:105AD0001C309E68904B6C609B462B60AC60EC6009
